{
  "contractName": "CourseMarketplace",
  "abi": [
    {
      "inputs": [],
      "stateMutability": "nonpayable",
      "type": "constructor"
    },
    {
      "inputs": [],
      "name": "CourseHasOwner",
      "type": "error"
    },
    {
      "inputs": [],
      "name": "OnlyOwner",
      "type": "error"
    },
    {
      "inputs": [
        {
          "internalType": "bytes16",
          "name": "courseId",
          "type": "bytes16"
        },
        {
          "internalType": "bytes32",
          "name": "proof",
          "type": "bytes32"
        }
      ],
      "name": "purchaseCourse",
      "outputs": [],
      "stateMutability": "payable",
      "type": "function",
      "payable": true
    },
    {
      "inputs": [
        {
          "internalType": "address",
          "name": "newOwner",
          "type": "address"
        }
      ],
      "name": "transferOwnership",
      "outputs": [],
      "stateMutability": "nonpayable",
      "type": "function"
    },
    {
      "inputs": [],
      "name": "getCourseCount",
      "outputs": [
        {
          "internalType": "uint256",
          "name": "",
          "type": "uint256"
        }
      ],
      "stateMutability": "view",
      "type": "function",
      "constant": true
    },
    {
      "inputs": [
        {
          "internalType": "uint256",
          "name": "index",
          "type": "uint256"
        }
      ],
      "name": "getCourseHashAtIndex",
      "outputs": [
        {
          "internalType": "bytes32",
          "name": "",
          "type": "bytes32"
        }
      ],
      "stateMutability": "view",
      "type": "function",
      "constant": true
    },
    {
      "inputs": [
        {
          "internalType": "bytes32",
          "name": "courseHash",
          "type": "bytes32"
        }
      ],
      "name": "getCourseByHash",
      "outputs": [
        {
          "components": [
            {
              "internalType": "uint256",
              "name": "id",
              "type": "uint256"
            },
            {
              "internalType": "uint256",
              "name": "price",
              "type": "uint256"
            },
            {
              "internalType": "bytes32",
              "name": "proof",
              "type": "bytes32"
            },
            {
              "internalType": "address",
              "name": "owner",
              "type": "address"
            },
            {
              "internalType": "enum CourseMarketplace.State",
              "name": "state",
              "type": "uint8"
            }
          ],
          "internalType": "struct CourseMarketplace.Course",
          "name": "",
          "type": "tuple"
        }
      ],
      "stateMutability": "view",
      "type": "function",
      "constant": true
    },
    {
      "inputs": [],
      "name": "getContractOwner",
      "outputs": [
        {
          "internalType": "address",
          "name": "",
          "type": "address"
        }
      ],
      "stateMutability": "view",
      "type": "function",
      "constant": true
    }
  ],
  "bytecode": "0x608060405234801561001057600080fd5b506100203361002560201b60201c565b610069565b80600360006101000a81548173ffffffffffffffffffffffffffffffffffffffff021916908373ffffffffffffffffffffffffffffffffffffffff16021790555050565b610a93806100786000396000f3fe6080604052600436106100555760003560e01c8063442890d51461005a57806362e4e6ac146100855780636d11290b146100c257806396cfda06146100ff578063d76821cb1461012a578063f2fde38b14610146575b600080fd5b34801561006657600080fd5b5061006f61016f565b60405161007c91906105ff565b60405180910390f35b34801561009157600080fd5b506100ac60048036038101906100a79190610655565b610199565b6040516100b99190610798565b60405180910390f35b3480156100ce57600080fd5b506100e960048036038101906100e491906107df565b610274565b6040516100f6919061081b565b60405180910390f35b34801561010b57600080fd5b50610114610291565b6040516101219190610845565b60405180910390f35b610144600480360381019061013f91906108b8565b61029b565b005b34801561015257600080fd5b5061016d60048036038101906101689190610924565b61043b565b005b6000600360009054906101000a900473ffffffffffffffffffffffffffffffffffffffff16905090565b6101a1610564565b6000808381526020019081526020016000206040518060a00160405290816000820154815260200160018201548152602001600282015481526020016003820160009054906101000a900473ffffffffffffffffffffffffffffffffffffffff1673ffffffffffffffffffffffffffffffffffffffff1673ffffffffffffffffffffffffffffffffffffffff1681526020016003820160149054906101000a900460ff166002811115610257576102566106b9565b5b6002811115610269576102686106b9565b5b815250509050919050565b600060016000838152602001908152602001600020549050919050565b6000600254905090565b600082336040516020016102b09291906109ba565b6040516020818303038152906040528051906020012090506102d1816104b3565b15610308576040517fb0fc2d9700000000000000000000000000000000000000000000000000000000815260040160405180910390fd5b60006002600081548092919061031d90610a15565b9190505590508160016000838152602001908152602001600020819055506040518060a001604052808281526020013481526020018481526020013373ffffffffffffffffffffffffffffffffffffffff16815260200160006002811115610388576103876106b9565b5b81525060008084815260200190815260200160002060008201518160000155602082015181600101556040820151816002015560608201518160030160006101000a81548173ffffffffffffffffffffffffffffffffffffffff021916908373ffffffffffffffffffffffffffffffffffffffff16021790555060808201518160030160146101000a81548160ff0219169083600281111561042d5761042c6106b9565b5b021790555090505050505050565b61044361016f565b73ffffffffffffffffffffffffffffffffffffffff163373ffffffffffffffffffffffffffffffffffffffff16146104a7576040517f5fc483c500000000000000000000000000000000000000000000000000000000815260040160405180910390fd5b6104b081610520565b50565b60003373ffffffffffffffffffffffffffffffffffffffff1660008084815260200190815260200160002060030160009054906101000a900473ffffffffffffffffffffffffffffffffffffffff1673ffffffffffffffffffffffffffffffffffffffff16149050919050565b80600360006101000a81548173ffffffffffffffffffffffffffffffffffffffff021916908373ffffffffffffffffffffffffffffffffffffffff16021790555050565b6040518060a00160405280600081526020016000815260200160008019168152602001600073ffffffffffffffffffffffffffffffffffffffff168152602001600060028111156105b8576105b76106b9565b5b81525090565b600073ffffffffffffffffffffffffffffffffffffffff82169050919050565b60006105e9826105be565b9050919050565b6105f9816105de565b82525050565b600060208201905061061460008301846105f0565b92915050565b600080fd5b6000819050919050565b6106328161061f565b811461063d57600080fd5b50565b60008135905061064f81610629565b92915050565b60006020828403121561066b5761066a61061a565b5b600061067984828501610640565b91505092915050565b6000819050919050565b61069581610682565b82525050565b6106a48161061f565b82525050565b6106b3816105de565b82525050565b7f4e487b7100000000000000000000000000000000000000000000000000000000600052602160045260246000fd5b600381106106f9576106f86106b9565b5b50565b600081905061070a826106e8565b919050565b600061071a826106fc565b9050919050565b61072a8161070f565b82525050565b60a082016000820151610746600085018261068c565b506020820151610759602085018261068c565b50604082015161076c604085018261069b565b50606082015161077f60608501826106aa565b5060808201516107926080850182610721565b50505050565b600060a0820190506107ad6000830184610730565b92915050565b6107bc81610682565b81146107c757600080fd5b50565b6000813590506107d9816107b3565b92915050565b6000602082840312156107f5576107f461061a565b5b6000610803848285016107ca565b91505092915050565b6108158161061f565b82525050565b6000602082019050610830600083018461080c565b92915050565b61083f81610682565b82525050565b600060208201905061085a6000830184610836565b92915050565b60007fffffffffffffffffffffffffffffffff0000000000000000000000000000000082169050919050565b61089581610860565b81146108a057600080fd5b50565b6000813590506108b28161088c565b92915050565b600080604083850312156108cf576108ce61061a565b5b60006108dd858286016108a3565b92505060206108ee85828601610640565b9150509250929050565b610901816105de565b811461090c57600080fd5b50565b60008135905061091e816108f8565b92915050565b60006020828403121561093a5761093961061a565b5b60006109488482850161090f565b91505092915050565b6000819050919050565b61096c61096782610860565b610951565b82525050565b60008160601b9050919050565b600061098a82610972565b9050919050565b600061099c8261097f565b9050919050565b6109b46109af826105de565b610991565b82525050565b60006109c6828561095b565b6010820191506109d682846109a3565b6014820191508190509392505050565b7f4e487b7100000000000000000000000000000000000000000000000000000000600052601160045260246000fd5b6000610a2082610682565b91507fffffffffffffffffffffffffffffffffffffffffffffffffffffffffffffffff8203610a5257610a516109e6565b5b60018201905091905056fea2646970667358221220c62be59f3d663484d9531c3c578125eb62b23f92663419231a9516c4831fdd0a64736f6c63430008130033",
  "immutableReferences": {},
  "source": "// SPDX-License-Identifier: MIT\r\npragma solidity >=0.4.22 <0.9.0;\r\n\r\ncontract CourseMarketplace {\r\n\r\n  enum State {\r\n    Purchased,\r\n    Activated,\r\n    Deactivated\r\n  }\r\n\r\n  struct Course {\r\n    uint id; // 32\r\n    uint price; // 32\r\n    bytes32 proof; // 32\r\n    address owner; // 20\r\n    State state; // 1\r\n  }\r\n\r\n  // mapping of courseHash to Course data\r\n  mapping(bytes32 => Course) private ownedCourses;\r\n\r\n  // mapping of courseID to courseHash\r\n  mapping(uint => bytes32) private ownedCourseHash;\r\n\r\n  // number of all courses + id of the course\r\n  uint private totalOwnedCourses;\r\n\r\n  address payable private owner;\r\n\r\n  constructor() {\r\n    setContractOwner(msg.sender);\r\n  }\r\n\r\n  /// Course has already a Owner!\r\n  error CourseHasOwner();\r\n\r\n  /// Only owner has an access!\r\n  error OnlyOwner();\r\n\r\n  modifier onlyOwner() {\r\n    if (msg.sender != getContractOwner()) {\r\n      revert OnlyOwner();\r\n    }\r\n    _;\r\n  }\r\n\r\n  function purchaseCourse(\r\n    bytes16 courseId, // 0x00000000000000000000000000003130\r\n    bytes32 proof // 0x0000000000000000000000000000313000000000000000000000000000003130\r\n  )\r\n    external\r\n    payable\r\n  {\r\n    bytes32 courseHash = keccak256(abi.encodePacked(courseId, msg.sender));\r\n\r\n    if (hasCourseOwnership(courseHash)) {\r\n      revert CourseHasOwner();\r\n    }\r\n\r\n    uint id = totalOwnedCourses++;\r\n\r\n    ownedCourseHash[id] = courseHash;\r\n    ownedCourses[courseHash] = Course({\r\n      id: id,\r\n      price: msg.value,\r\n      proof: proof,\r\n      owner: msg.sender,\r\n      state: State.Purchased\r\n    });\r\n  }\r\n\r\n  function transferOwnership(address newOwner)\r\n    external\r\n    onlyOwner\r\n  {\r\n    setContractOwner(newOwner);\r\n  }\r\n\r\n  function getCourseCount()\r\n    external\r\n    view\r\n    returns (uint)\r\n  {\r\n    return totalOwnedCourses;\r\n  }\r\n\r\n  function getCourseHashAtIndex(uint index)\r\n    external\r\n    view\r\n    returns (bytes32)\r\n  {\r\n    return ownedCourseHash[index];\r\n  }\r\n\r\n  function getCourseByHash(bytes32 courseHash)\r\n    external\r\n    view\r\n    returns (Course memory)\r\n  {\r\n    return ownedCourses[courseHash];\r\n  }\r\n\r\n  function getContractOwner()\r\n    public\r\n    view\r\n    returns (address)\r\n  {\r\n    return owner;\r\n  }\r\n\r\n  function setContractOwner(address newOwner) private {\r\n    owner = payable(newOwner);\r\n  }\r\n\r\n  function hasCourseOwnership(bytes32 courseHash)\r\n    private\r\n    view\r\n    returns (bool)\r\n  {\r\n    return ownedCourses[courseHash].owner == msg.sender;\r\n  }\r\n}",
  "sourcePath": "C:\\Code\\Blockchain\\ecommerce-store\\contracts\\CourseMarketplace.sol",
  "compiler": {
    "name": "solc",
    "version": "0.8.19+commit.7dd6d404.Emscripten.clang"
  },
  "schemaVersion": "3.4.13",
  "updatedAt": "2023-05-19T10:42:43.549Z",
  "networkType": "ethereum",
  "devdoc": {
    "kind": "dev",
    "methods": {},
    "version": 1
  },
  "userdoc": {
    "errors": {
      "CourseHasOwner()": [
        {
          "notice": "Course has already a Owner!"
        }
      ],
      "OnlyOwner()": [
        {
          "notice": "Only owner has an access!"
        }
      ]
    },
    "kind": "user",
    "methods": {},
    "version": 1
  }
}